HAPSP12059382                                                     50613701407029012018                    29012018000000000941445WORKERS SALARY 12/2017                                                                                                                                                             D5938229012018052626                                                      
D00000001ZULKEFLE BIN MUHAMAD                                800510045213            015001156244072926        000000000238305                                        FM12017001                                                                                                                                                                                                            
D00000002KHAIRUL ALIF BIN KAMARUDIN                          900203065087            015001156244124588        000000000227905                                        FM12017002                                                                                                                                                                                                            
D00000003AFZANIZAN BIN ISMAIL                                800603065571            015001156244152768        000000000223555                                        FM12018001                                                                                                                                                                                                            
D00000004SINUCIM                                                         AT643535    015001156244152781        000000000251680                                        FI12018002                                                                                                                                                                                                            
T000000000000004000000000941445000000000000000000000000000000000000000000000000000000000000000000000000000000000000000000000000000000000000000000000000000000000000000000000000000000                                                                                                                                                                                                       