HAPSP12059382                                                     50613701407030012018                    30012018000000000089387WORKERS SALARY 01/2018                                                                                                                                                             D5938230012018110847                                                      
D00000001ZULKEFLE BIN MUHAMAD                                800510045213            015001156244072926        000000000039770                                        FM12017001                                                                                                                                                                                                            
D00000002KHAIRUL ALIF BIN KAMARUDIN                          900203065087            015001156244124588        000000000014303                                        FM12017002                                                                                                                                                                                                            
D00000003AFZANIZAN BIN ISMAIL                                800603065571            015001156244152768        000000000012194                                        FM12018001                                                                                                                                                                                                            
D00000004NURUL IZZATI                                        910119075070            015001156114182970        000000000007710                                        FM12018003                                                                                                                                                                                                            
D00000005NIMO                                                            A101010     015001156114182964        000000000003850                                        FB12018001                                                                                                                                                                                                            
D00000006SINUCIM                                                         AT643535    015001156244152781        000000000003850                                        FI12018002                                                                                                                                                                                                            
D00000007ASHAHRI                                             910119075070            015001151071526409        000000000007710                                        FM12018004                                                                                                                                                                                                            
T000000000000007000000000089387000000000000000000000000000000000000000000000000000000000000000000000000000000000000000000000000000000000000000000000000000000000000000000000000000000                                                                                                                                                                                                       